{
  "abi": [
    {
      "inputs": [],
      "stateMutability": "nonpayable",
      "type": "constructor"
    },
    {
      "anonymous": false,
      "inputs": [
        {
          "indexed": false,
          "internalType": "address",
          "name": "",
          "type": "address"
        },
        {
          "indexed": false,
          "internalType": "uint256",
          "name": "",
          "type": "uint256"
        }
      ],
      "name": "Received",
      "type": "event"
    },
    {
      "anonymous": false,
      "inputs": [
        {
          "indexed": true,
          "internalType": "address",
          "name": "receiver",
          "type": "address"
        },
        {
          "indexed": true,
          "internalType": "uint256",
          "name": "claimAmount",
          "type": "uint256"
        },
        {
          "indexed": true,
          "internalType": "address",
          "name": "padToken",
          "type": "address"
        }
      ],
      "name": "claimedSuccefully",
      "type": "event"
    },
    {
      "anonymous": false,
      "inputs": [
        {
          "indexed": true,
          "internalType": "string",
          "name": "tokenName",
          "type": "string"
        },
        {
          "indexed": true,
          "internalType": "uint256",
          "name": "padId",
          "type": "uint256"
        },
        {
          "indexed": true,
          "internalType": "uint256",
          "name": "tokenPerMinETH",
          "type": "uint256"
        },
        {
          "indexed": false,
          "internalType": "uint256",
          "name": "amountToRaise",
          "type": "uint256"
        }
      ],
      "name": "createdPad",
      "type": "event"
    },
    {
      "anonymous": false,
      "inputs": [
        {
          "indexed": false,
          "internalType": "address",
          "name": "moderator",
          "type": "address"
        },
        {
          "indexed": true,
          "internalType": "uint256",
          "name": "_padId",
          "type": "uint256"
        },
        {
          "indexed": true,
          "internalType": "uint256",
          "name": "duration",
          "type": "uint256"
        },
        {
          "indexed": true,
          "internalType": "string",
          "name": "_tokenName",
          "type": "string"
        }
      ],
      "name": "launched",
      "type": "event"
    },
    {
      "anonymous": false,
      "inputs": [
        {
          "indexed": true,
          "internalType": "uint256",
          "name": "_amount",
          "type": "uint256"
        },
        {
          "indexed": true,
          "internalType": "uint256",
          "name": "_padId",
          "type": "uint256"
        },
        {
          "indexed": true,
          "internalType": "string",
          "name": "_tokenName",
          "type": "string"
        }
      ],
      "name": "stakeSuccessful",
      "type": "event"
    },
    {
      "stateMutability": "payable",
      "type": "fallback"
    },
    {
      "inputs": [
        {
          "internalType": "uint256",
          "name": "_padId",
          "type": "uint256"
        },
        {
          "internalType": "string",
          "name": "_tokenName",
          "type": "string"
        }
      ],
      "name": "claimLaunchPad",
      "outputs": [],
      "stateMutability": "nonpayable",
      "type": "function"
    },
    {
      "inputs": [
        {
          "internalType": "uint256",
          "name": "_padId",
          "type": "uint256"
        },
        {
          "internalType": "string",
          "name": "_tokenName",
          "type": "string"
        },
        {
          "internalType": "address",
          "name": "_padToken",
          "type": "address"
        },
        {
          "internalType": "uint256",
          "name": "_tokenPerMinETH",
          "type": "uint256"
        },
        {
          "internalType": "uint256",
          "name": "_amountEthToRaise",
          "type": "uint256"
        },
        {
          "internalType": "uint256",
          "name": "_totalSupply",
          "type": "uint256"
        }
      ],
      "name": "createPad",
      "outputs": [],
      "stateMutability": "nonpayable",
      "type": "function"
    },
    {
      "inputs": [],
      "name": "getBalance",
      "outputs": [
        {
          "internalType": "uint256",
          "name": "",
          "type": "uint256"
        }
      ],
      "stateMutability": "view",
      "type": "function"
    },
    {
      "inputs": [
        {
          "internalType": "address",
          "name": "_tokenContract",
          "type": "address"
        }
      ],
      "name": "getTokenBalance",
      "outputs": [
        {
          "internalType": "uint256",
          "name": "",
          "type": "uint256"
        }
      ],
      "stateMutability": "view",
      "type": "function"
    },
    {
      "inputs": [
        {
          "internalType": "uint256",
          "name": "_padId",
          "type": "uint256"
        },
        {
          "internalType": "uint256",
          "name": "_timeInSeconds",
          "type": "uint256"
        }
      ],
      "name": "increasePadDuration",
      "outputs": [
        {
          "internalType": "bool",
          "name": "timeAdded",
          "type": "bool"
        }
      ],
      "stateMutability": "nonpayable",
      "type": "function"
    },
    {
      "inputs": [
        {
          "internalType": "uint256",
          "name": "_padId",
          "type": "uint256"
        },
        {
          "internalType": "string",
          "name": "_tokenName",
          "type": "string"
        }
      ],
      "name": "launchPad",
      "outputs": [],
      "stateMutability": "nonpayable",
      "type": "function"
    },
    {
      "inputs": [],
      "name": "minETH",
      "outputs": [
        {
          "internalType": "uint256",
          "name": "",
          "type": "uint256"
        }
      ],
      "stateMutability": "view",
      "type": "function"
    },
    {
      "inputs": [
        {
          "internalType": "uint256",
          "name": "_padId",
          "type": "uint256"
        },
        {
          "internalType": "string",
          "name": "_tokenName",
          "type": "string"
        }
      ],
      "name": "stakeOnPad",
      "outputs": [],
      "stateMutability": "payable",
      "type": "function"
    },
    {
      "inputs": [
        {
          "internalType": "address",
          "name": "_tokenContract",
          "type": "address"
        },
        {
          "internalType": "address",
          "name": "_to",
          "type": "address"
        },
        {
          "internalType": "uint256",
          "name": "_amount",
          "type": "uint256"
        }
      ],
      "name": "transferTokenBal",
      "outputs": [
        {
          "internalType": "bool",
          "name": "success",
          "type": "bool"
        }
      ],
      "stateMutability": "nonpayable",
      "type": "function"
    },
    {
      "inputs": [
        {
          "internalType": "address payable",
          "name": "_to",
          "type": "address"
        },
        {
          "internalType": "uint256",
          "name": "_amount",
          "type": "uint256"
        }
      ],
      "name": "withdraw",
      "outputs": [
        {
          "internalType": "bool",
          "name": "success",
          "type": "bool"
        }
      ],
      "stateMutability": "nonpayable",
      "type": "function"
    },
    {
      "stateMutability": "payable",
      "type": "receive"
    }
  ],
  "bytecode": {
    "object": "0x608060405266038d7ea4c6800060005534801561001b57600080fd5b50600180546001600160a01b0319163317905561155a8061003d6000396000f3fe60806040526004361061008f5760003560e01c8063df67d82d11610056578063df67d82d14610175578063e560dc151461018b578063f0b383ad146101ab578063f3fef3a3146101cb578063f4b387f5146101eb57005b806312065fe0146100d05780633aecd0e3146100f25780633eece6dd1461011257806349e1a8f014610142578063b272e60e1461016257005b366100ce57604080513381523460208201527f88a5966d370b9919b20f3e2c13ff65706f196a4e32cc2c12bf57088f88525874910160405180910390a1005b005b3480156100dc57600080fd5b50475b6040519081526020015b60405180910390f35b3480156100fe57600080fd5b506100df61010d36600461104e565b61020b565b34801561011e57600080fd5b5061013261012d366004611072565b61027c565b60405190151581526020016100e9565b34801561014e57600080fd5b5061013261015d366004611094565b6102e4565b6100ce610170366004611178565b610481565b34801561018157600080fd5b506100df60005481565b34801561019757600080fd5b506100ce6101a63660046111bf565b610490565b3480156101b757600080fd5b506100ce6101c6366004611178565b6107bc565b3480156101d757600080fd5b506101326101e6366004611234565b610afc565b3480156101f757600080fd5b506100ce610206366004611178565b610ba6565b6040516370a0823160e01b81523060048201526000906001600160a01b038316906370a0823190602401602060405180830381865afa158015610252573d6000803e3d6000fd5b505050506040513d601f19601f820116820180604052508101906102769190611260565b92915050565b6001546000906001600160a01b031633146102b25760405162461bcd60e51b81526004016102a990611279565b60405180910390fd5b6000838152600360205260408120600581018054919285926102d59084906112b6565b90915550600195945050505050565b6001546000906001600160a01b031633146103115760405162461bcd60e51b81526004016102a990611279565b6040516370a0823160e01b815230600482015282906001600160a01b038616906370a0823190602401602060405180830381865afa158015610357573d6000803e3d6000fd5b505050506040513d601f19601f8201168201806040525081019061037b9190611260565b10156103c05760405162461bcd60e51b8152602060048201526014602482015273496e73756666696369656e742062616c616e636560601b60448201526064016102a9565b60405163a9059cbb60e01b81526001600160a01b0384811660048301526024820184905285169063a9059cbb906044016020604051808303816000875af115801561040f573d6000803e3d6000fd5b505050506040513d601f19601f8201168201806040525081019061043391906112c9565b6104775760405162461bcd60e51b8152602060048201526015602482015274151bdad95b881d1c985b9cd9995c8819985a5b1959605a1b60448201526064016102a9565b5060019392505050565b61048b8282610da0565b505050565b6001600160a01b0384166104f25760405162461bcd60e51b815260206004820152602360248201527f746f6b656e436f6e74726163742063616e27742062652061646472657373207a60448201526265726f60e81b60648201526084016102a9565b60008681526002602052604090205460ff16156105455760405162461bcd60e51b8152602060048201526011602482015270494420616c72656164792065786973747360781b60448201526064016102a9565b6001600160a01b03841660009081526004602052604090205460ff16156105a35760405162461bcd60e51b81526020600482015260126024820152715061642065786973747320616c726561647960701b60448201526064016102a9565b6000868152600260209081526040808320805460ff191660019081179091556004928390526006805491820181559093527ff652222313e28459528d920b65115c16c04f3efc82aaedc97be59f3f377c0d3f90920188905590516323b872dd60e01b81523391810191909152306024820152604481018290526001600160a01b038516906323b872dd906064016020604051808303816000875af115801561064f573d6000803e3d6000fd5b505050506040513d601f19601f8201168201806040525081019061067391906112c9565b506040805161012081018252878152602080820188815233838501526001600160a01b038816606084015260808301859052600060a0840181905260c0840188905260e0840187905261010084018190528a815260039092529290208151815591519091829160018201906106e89082611373565b506040828101516002830180546001600160a01b039283166001600160a01b03199182161790915560608501516003850180549190931691161790556080830151600483015560a0830151600583015560c0830151600683015560e08301516007830155610100909201516008909101805491151560ff199092169190911790555184908890610779908990611433565b604051908190038120868252907fc8e4db3b29f0893d5b1f3d6677aa243159474f5bfd20469546a513af445bbad99060200160405180910390a450505050505050565b60008281526002602052604090205460ff1661080e5760405162461bcd60e51b815260206004820152601160248201527014185908191bd95cdb89dd08195e1a5cdd607a1b60448201526064016102a9565b6000828152600360209081526040808320905190929161083091859101611433565b60405160208183030381529060405280519060200120905060008260010160405160200161085e9190611462565b6040516020818303038152906040528051906020012090508181146108bc5760405162461bcd60e51b8152602060048201526014602482015273496e636f727265637420746f6b656e206e616d6560601b60448201526064016102a9565b826005015442106108ee5760088301805460ff1916905560038301546001600160a01b03166000526004602052610936565b60405162461bcd60e51b815260206004820152601b60248201527f4c61756e6368706164206475726174696f6e206e6f74206f766572000000000060448201526064016102a9565b336000908152600560209081526040808320888452909152812054908190036109a15760405162461bcd60e51b815260206004820152601f60248201527f5573657220646964206e6f74207374616b65206f6e204c61756e63687061640060448201526064016102a9565b60008460060154600054836109b691906114d8565b6109c091906114fa565b600386015460405163a9059cbb60e01b8152336004820152602481018390529192506000916001600160a01b039091169063a9059cbb906044016020604051808303816000875af1158015610a19573d6000803e3d6000fd5b505050506040513d601f19601f82011682018060405250810190610a3d91906112c9565b905080610a7e5760405162461bcd60e51b815260206004820152600f60248201526e1d1c985b9cd9995c8819985a5b1959608a1b60448201526064016102a9565b3360009081526005602090815260408083208b84529091528120819055600487018054849290610aaf908490611511565b909155505060038601546040516001600160a01b0390911690839033907f0910b84b1d61053554ee5f830e8aa99713305e2834da68f18f30942f0cd2a5f490600090a45050505050505050565b6001546000906001600160a01b03163314610b295760405162461bcd60e51b81526004016102a990611279565b81471015610b705760405162461bcd60e51b8152602060048201526014602482015273496e73756666696369656e742062616c616e636560601b60448201526064016102a9565b6040516001600160a01b0384169083156108fc029084906000818181858888f19350505050158015610477573d6000803e3d6000fd5b6001546001600160a01b03163314610bd05760405162461bcd60e51b81526004016102a990611279565b60008281526002602052604090205460ff16610c235760405162461bcd60e51b815260206004820152601260248201527114185908191bd95cc81b9bdd08195e1a5cdd60721b60448201526064016102a9565b6000828152600360205260409020600881015460ff1615610c7d5760405162461bcd60e51b815260206004820152601460248201527314185908185b1c9958591e481b185d5b98da195960621b60448201526064016102a9565b600082604051602001610c909190611433565b604051602081830303815290604052805190602001209050600082600101604051602001610cbe9190611462565b604051602081830303815290604052805190602001209050818114610d1a5760405162461bcd60e51b8152602060048201526012602482015271496e76616c696420746f6b656e206e616d6560701b60448201526064016102a9565b6000610d2842611c206112b6565b60088501805460ff1916600117905560058501819055604051909150610d4f908690611433565b6040519081900381206001546001600160a01b0316825290879083907fcabd657b3435afac04c49a8284eb9e27bfd31c54ca6df724eccf3f3ae17b839b9060200160405180910390a4505050505050565b6000828152600360205260408120600881015460ff161515600114610dfd5760405162461bcd60e51b8152602060048201526013602482015272141859081a5cc81b9bdd081b185d5b98da1959606a1b60448201526064016102a9565b80600501544210610e425760405162461bcd60e51b815260206004820152600f60248201526e13185d5b98da14185908115b991959608a1b60448201526064016102a9565b600054341015610e8a5760405162461bcd60e51b8152602060048201526013602482015272496e73756666696369656e742045746865727360681b60448201526064016102a9565b60008481526002602052604090205460ff16610edd5760405162461bcd60e51b815260206004820152601260248201527114185908191bd95cc81b9bdd08195e1a5cdd60721b60448201526064016102a9565b600881015460ff161515600114610f2a5760405162461bcd60e51b8152602060048201526011602482015270506164206e6f7420617661696c61626c6560781b60448201526064016102a9565b6040513490600090610f40908690602001611433565b604051602081830303815290604052805190602001209050600083600101604051602001610f6e9190611462565b604051602081830303815290604052805190602001209050818114610fca5760405162461bcd60e51b8152602060048201526012602482015271496e76616c696420746f6b656e206e616d6560701b60448201526064016102a9565b3360009081526005602090815260408083208a84529091529081902084905551610ff5908790611433565b60405190819003812090889085907fb9d827836275d119cf5a82017c4231791219cb32edd2e21c2d20f0f7ff6665bd90600090a45060019695505050505050565b6001600160a01b038116811461104b57600080fd5b50565b60006020828403121561106057600080fd5b813561106b81611036565b9392505050565b6000806040838503121561108557600080fd5b50508035926020909101359150565b6000806000606084860312156110a957600080fd5b83356110b481611036565b925060208401356110c481611036565b929592945050506040919091013590565b634e487b7160e01b600052604160045260246000fd5b600082601f8301126110fc57600080fd5b813567ffffffffffffffff80821115611117576111176110d5565b604051601f8301601f19908116603f0116810190828211818310171561113f5761113f6110d5565b8160405283815286602085880101111561115857600080fd5b836020870160208301376000602085830101528094505050505092915050565b6000806040838503121561118b57600080fd5b82359150602083013567ffffffffffffffff8111156111a957600080fd5b6111b5858286016110eb565b9150509250929050565b60008060008060008060c087890312156111d857600080fd5b86359550602087013567ffffffffffffffff8111156111f657600080fd5b61120289828a016110eb565b955050604087013561121381611036565b959894975094956060810135955060808101359460a0909101359350915050565b6000806040838503121561124757600080fd5b823561125281611036565b946020939093013593505050565b60006020828403121561127257600080fd5b5051919050565b6020808252600d908201526c1058d8d95cdcc819195b9a5959609a1b604082015260600190565b634e487b7160e01b600052601160045260246000fd5b80820180821115610276576102766112a0565b6000602082840312156112db57600080fd5b8151801515811461106b57600080fd5b600181811c908216806112ff57607f821691505b60208210810361131f57634e487b7160e01b600052602260045260246000fd5b50919050565b601f82111561048b57600081815260208120601f850160051c8101602086101561134c5750805b601f850160051c820191505b8181101561136b57828155600101611358565b505050505050565b815167ffffffffffffffff81111561138d5761138d6110d5565b6113a18161139b84546112eb565b84611325565b602080601f8311600181146113d657600084156113be5750858301515b600019600386901b1c1916600185901b17855561136b565b600085815260208120601f198616915b82811015611405578886015182559484019460019091019084016113e6565b50858210156114235787850151600019600388901b60f8161c191681555b5050505050600190811b01905550565b6000825160005b81811015611454576020818601810151858301520161143a565b506000920191825250919050565b6000808354611470816112eb565b60018281168015611488576001811461149d576114cc565b60ff19841687528215158302870194506114cc565b8760005260208060002060005b858110156114c35781548a8201529084019082016114aa565b50505082870194505b50929695505050505050565b6000826114f557634e487b7160e01b600052601260045260246000fd5b500490565b8082028115828204841417610276576102766112a0565b81810381811115610276576102766112a056fea264697066735822122060f2eb95b0327d6ca8d82703a788234338caea243c02aa3a8f3c8b1001edee6c64736f6c63430008110033",
    "linkReferences": {}
  },
  "methodIdentifiers": {
    "claimLaunchPad(uint256,string)": "f0b383ad",
    "createPad(uint256,string,address,uint256,uint256,uint256)": "e560dc15",
    "getBalance()": "12065fe0",
    "getTokenBalance(address)": "3aecd0e3",
    "increasePadDuration(uint256,uint256)": "3eece6dd",
    "launchPad(uint256,string)": "f4b387f5",
    "minETH()": "df67d82d",
    "stakeOnPad(uint256,string)": "b272e60e",
    "transferTokenBal(address,address,uint256)": "49e1a8f0",
    "withdraw(address,uint256)": "f3fef3a3"
  },
  "id": 22
}