{
  "abi": [
    {
      "inputs": [
        {
          "internalType": "string",
          "name": "name",
          "type": "string"
        },
        {
          "internalType": "string",
          "name": "symbol",
          "type": "string"
        }
      ],
      "stateMutability": "nonpayable",
      "type": "constructor"
    },
    {
      "anonymous": false,
      "inputs": [
        {
          "indexed": true,
          "internalType": "address",
          "name": "owner",
          "type": "address"
        },
        {
          "indexed": true,
          "internalType": "address",
          "name": "spender",
          "type": "address"
        },
        {
          "indexed": false,
          "internalType": "uint256",
          "name": "value",
          "type": "uint256"
        }
      ],
      "name": "Approval",
      "type": "event"
    },
    {
      "anonymous": false,
      "inputs": [
        {
          "indexed": true,
          "internalType": "address",
          "name": "from",
          "type": "address"
        },
        {
          "indexed": true,
          "internalType": "address",
          "name": "to",
          "type": "address"
        },
        {
          "indexed": false,
          "internalType": "uint256",
          "name": "value",
          "type": "uint256"
        }
      ],
      "name": "Transfer",
      "type": "event"
    },
    {
      "inputs": [
        {
          "internalType": "address",
          "name": "owner",
          "type": "address"
        },
        {
          "internalType": "address",
          "name": "spender",
          "type": "address"
        }
      ],
      "name": "allowance",
      "outputs": [
        {
          "internalType": "uint256",
          "name": "",
          "type": "uint256"
        }
      ],
      "stateMutability": "view",
      "type": "function"
    },
    {
      "inputs": [
        {
          "internalType": "address",
          "name": "spender",
          "type": "address"
        },
        {
          "internalType": "uint256",
          "name": "amount",
          "type": "uint256"
        }
      ],
      "name": "approve",
      "outputs": [
        {
          "internalType": "bool",
          "name": "",
          "type": "bool"
        }
      ],
      "stateMutability": "nonpayable",
      "type": "function"
    },
    {
      "inputs": [
        {
          "internalType": "address",
          "name": "account",
          "type": "address"
        }
      ],
      "name": "balanceOf",
      "outputs": [
        {
          "internalType": "uint256",
          "name": "",
          "type": "uint256"
        }
      ],
      "stateMutability": "view",
      "type": "function"
    },
    {
      "inputs": [],
      "name": "decimals",
      "outputs": [
        {
          "internalType": "uint8",
          "name": "",
          "type": "uint8"
        }
      ],
      "stateMutability": "view",
      "type": "function"
    },
    {
      "inputs": [
        {
          "internalType": "address",
          "name": "spender",
          "type": "address"
        },
        {
          "internalType": "uint256",
          "name": "subtractedValue",
          "type": "uint256"
        }
      ],
      "name": "decreaseAllowance",
      "outputs": [
        {
          "internalType": "bool",
          "name": "",
          "type": "bool"
        }
      ],
      "stateMutability": "nonpayable",
      "type": "function"
    },
    {
      "inputs": [
        {
          "internalType": "address",
          "name": "spender",
          "type": "address"
        },
        {
          "internalType": "uint256",
          "name": "addedValue",
          "type": "uint256"
        }
      ],
      "name": "increaseAllowance",
      "outputs": [
        {
          "internalType": "bool",
          "name": "",
          "type": "bool"
        }
      ],
      "stateMutability": "nonpayable",
      "type": "function"
    },
    {
      "inputs": [
        {
          "internalType": "uint256",
          "name": "amount",
          "type": "uint256"
        }
      ],
      "name": "mint",
      "outputs": [],
      "stateMutability": "nonpayable",
      "type": "function"
    },
    {
      "inputs": [],
      "name": "name",
      "outputs": [
        {
          "internalType": "string",
          "name": "",
          "type": "string"
        }
      ],
      "stateMutability": "view",
      "type": "function"
    },
    {
      "inputs": [],
      "name": "symbol",
      "outputs": [
        {
          "internalType": "string",
          "name": "",
          "type": "string"
        }
      ],
      "stateMutability": "view",
      "type": "function"
    },
    {
      "inputs": [],
      "name": "totalSupply",
      "outputs": [
        {
          "internalType": "uint256",
          "name": "",
          "type": "uint256"
        }
      ],
      "stateMutability": "view",
      "type": "function"
    },
    {
      "inputs": [
        {
          "internalType": "address",
          "name": "to",
          "type": "address"
        },
        {
          "internalType": "uint256",
          "name": "amount",
          "type": "uint256"
        }
      ],
      "name": "transfer",
      "outputs": [
        {
          "internalType": "bool",
          "name": "",
          "type": "bool"
        }
      ],
      "stateMutability": "nonpayable",
      "type": "function"
    },
    {
      "inputs": [
        {
          "internalType": "address",
          "name": "from",
          "type": "address"
        },
        {
          "internalType": "address",
          "name": "to",
          "type": "address"
        },
        {
          "internalType": "uint256",
          "name": "amount",
          "type": "uint256"
        }
      ],
      "name": "transferFrom",
      "outputs": [
        {
          "internalType": "bool",
          "name": "",
          "type": "bool"
        }
      ],
      "stateMutability": "nonpayable",
      "type": "function"
    }
  ],
  "bytecode": {
    "object": "0x60806040523480156200001157600080fd5b5060405162000e0938038062000e09833981016040819052620000349162000155565b818160036200004483826200024e565b5060046200005382826200024e565b506006915062000066905083826200024e565b5060076200007582826200024e565b5050600580546001600160a01b03191633179055506200031a565b634e487b7160e01b600052604160045260246000fd5b600082601f830112620000b857600080fd5b81516001600160401b0380821115620000d557620000d562000090565b604051601f8301601f19908116603f0116810190828211818310171562000100576200010062000090565b816040528381526020925086838588010111156200011d57600080fd5b600091505b8382101562000141578582018301518183018401529082019062000122565b600093810190920192909252949350505050565b600080604083850312156200016957600080fd5b82516001600160401b03808211156200018157600080fd5b6200018f86838701620000a6565b93506020850151915080821115620001a657600080fd5b50620001b585828601620000a6565b9150509250929050565b600181811c90821680620001d457607f821691505b602082108103620001f557634e487b7160e01b600052602260045260246000fd5b50919050565b601f8211156200024957600081815260208120601f850160051c81016020861015620002245750805b601f850160051c820191505b81811015620002455782815560010162000230565b5050505b505050565b81516001600160401b038111156200026a576200026a62000090565b62000282816200027b8454620001bf565b84620001fb565b602080601f831160018114620002ba5760008415620002a15750858301515b600019600386901b1c1916600185901b17855562000245565b600085815260208120601f198616915b82811015620002eb57888601518255948401946001909101908401620002ca565b50858210156200030a5787850151600019600388901b60f8161c191681555b5050505050600190811b01905550565b610adf806200032a6000396000f3fe608060405234801561001057600080fd5b50600436106100b45760003560e01c806370a082311161007157806370a082311461014157806395d89b411461016a578063a0712d6814610172578063a457c2d714610187578063a9059cbb1461019a578063dd62ed3e146101ad57600080fd5b806306fdde03146100b9578063095ea7b3146100d757806318160ddd146100fa57806323b872dd1461010c578063313ce5671461011f578063395093511461012e575b600080fd5b6100c16101c0565b6040516100ce91906107fe565b60405180910390f35b6100ea6100e5366004610868565b610252565b60405190151581526020016100ce565b6002545b6040519081526020016100ce565b6100ea61011a366004610892565b61026c565b604051601281526020016100ce565b6100ea61013c366004610868565b610290565b6100fe61014f3660046108ce565b6001600160a01b031660009081526020819052604090205490565b6100c16102b2565b6101856101803660046108f0565b6102c1565b005b6100ea610195366004610868565b610349565b6100ea6101a8366004610868565b6103c4565b6100fe6101bb366004610909565b6103d2565b6060600380546101cf9061093c565b80601f01602080910402602001604051908101604052809291908181526020018280546101fb9061093c565b80156102485780601f1061021d57610100808354040283529160200191610248565b820191906000526020600020905b81548152906001019060200180831161022b57829003601f168201915b5050505050905090565b6000336102608185856103fd565b60019150505b92915050565b60003361027a858285610521565b61028585858561059b565b506001949350505050565b6000336102608185856102a383836103d2565b6102ad919061098c565b6103fd565b6060600480546101cf9061093c565b6005546001600160a01b0316331461030c5760405162461bcd60e51b81526020600482015260096024820152682737ba1037bbb732b960b91b60448201526064015b60405180910390fd5b600554610337906001600160a01b03166103286012600a610a83565b6103329084610a92565b61073f565b33600090815260086020526040902055565b6000338161035782866103d2565b9050838110156103b75760405162461bcd60e51b815260206004820152602560248201527f45524332303a2064656372656173656420616c6c6f77616e63652062656c6f77604482015264207a65726f60d81b6064820152608401610303565b61028582868684036103fd565b60003361026081858561059b565b6001600160a01b03918216600090815260016020908152604080832093909416825291909152205490565b6001600160a01b03831661045f5760405162461bcd60e51b8152602060048201526024808201527f45524332303a20617070726f76652066726f6d20746865207a65726f206164646044820152637265737360e01b6064820152608401610303565b6001600160a01b0382166104c05760405162461bcd60e51b815260206004820152602260248201527f45524332303a20617070726f766520746f20746865207a65726f206164647265604482015261737360f01b6064820152608401610303565b6001600160a01b0383811660008181526001602090815260408083209487168084529482529182902085905590518481527f8c5be1e5ebec7d5bd14f71427d1e84f3dd0314c0f7b2291e5b200ac8c7c3b925910160405180910390a3505050565b600061052d84846103d2565b9050600019811461059557818110156105885760405162461bcd60e51b815260206004820152601d60248201527f45524332303a20696e73756666696369656e7420616c6c6f77616e63650000006044820152606401610303565b61059584848484036103fd565b50505050565b6001600160a01b0383166105ff5760405162461bcd60e51b815260206004820152602560248201527f45524332303a207472616e736665722066726f6d20746865207a65726f206164604482015264647265737360d81b6064820152608401610303565b6001600160a01b0382166106615760405162461bcd60e51b815260206004820152602360248201527f45524332303a207472616e7366657220746f20746865207a65726f206164647260448201526265737360e81b6064820152608401610303565b6001600160a01b038316600090815260208190526040902054818110156106d95760405162461bcd60e51b815260206004820152602660248201527f45524332303a207472616e7366657220616d6f756e7420657863656564732062604482015265616c616e636560d01b6064820152608401610303565b6001600160a01b03848116600081815260208181526040808320878703905593871680835291849020805487019055925185815290927fddf252ad1be2c89b69c2b068fc378daa952ba7f163c4a11628f55a4df523b3ef910160405180910390a3610595565b6001600160a01b0382166107955760405162461bcd60e51b815260206004820152601f60248201527f45524332303a206d696e7420746f20746865207a65726f2061646472657373006044820152606401610303565b80600260008282546107a7919061098c565b90915550506001600160a01b038216600081815260208181526040808320805486019055518481527fddf252ad1be2c89b69c2b068fc378daa952ba7f163c4a11628f55a4df523b3ef910160405180910390a35050565b600060208083528351808285015260005b8181101561082b5785810183015185820160400152820161080f565b506000604082860101526040601f19601f8301168501019250505092915050565b80356001600160a01b038116811461086357600080fd5b919050565b6000806040838503121561087b57600080fd5b6108848361084c565b946020939093013593505050565b6000806000606084860312156108a757600080fd5b6108b08461084c565b92506108be6020850161084c565b9150604084013590509250925092565b6000602082840312156108e057600080fd5b6108e98261084c565b9392505050565b60006020828403121561090257600080fd5b5035919050565b6000806040838503121561091c57600080fd5b6109258361084c565b91506109336020840161084c565b90509250929050565b600181811c9082168061095057607f821691505b60208210810361097057634e487b7160e01b600052602260045260246000fd5b50919050565b634e487b7160e01b600052601160045260246000fd5b8082018082111561026657610266610976565b600181815b808511156109da5781600019048211156109c0576109c0610976565b808516156109cd57918102915b93841c93908002906109a4565b509250929050565b6000826109f157506001610266565b816109fe57506000610266565b8160018114610a145760028114610a1e57610a3a565b6001915050610266565b60ff841115610a2f57610a2f610976565b50506001821b610266565b5060208310610133831016604e8410600b8410161715610a5d575081810a610266565b610a67838361099f565b8060001904821115610a7b57610a7b610976565b029392505050565b60006108e960ff8416836109e2565b80820281158282048414176102665761026661097656fea2646970667358221220acbbbb7a186b1bb51cbe5ffe716c09d552cec21e8e0e4b80f74eff999c9d4d2364736f6c63430008110033",
    "linkReferences": {}
  },
  "methodIdentifiers": {
    "allowance(address,address)": "dd62ed3e",
    "approve(address,uint256)": "095ea7b3",
    "balanceOf(address)": "70a08231",
    "decimals()": "313ce567",
    "decreaseAllowance(address,uint256)": "a457c2d7",
    "increaseAllowance(address,uint256)": "39509351",
    "mint(uint256)": "a0712d68",
    "name()": "06fdde03",
    "symbol()": "95d89b41",
    "totalSupply()": "18160ddd",
    "transfer(address,uint256)": "a9059cbb",
    "transferFrom(address,address,uint256)": "23b872dd"
  },
  "id": 23
}